:1000000033C000004CC000004AC0000048C00000DF
:1000100046C0000044C0000042C0000040C00000D4
:100020003EC000003CC000003AC0000087C0000095
:1000300036C0000034C0000032C0000030C00000F4
:100040002EC000002CC000002AC0000028C0000004
:1000500026C0000024C0000022C0000020C0000014
:100060001EC000001CC0000011241FBECFEFD8E04E
:10007000DEBFCDBF11E0A0E0B1E0EEEAF8E002C0E3
:1000800005900D92A43AB107D9F721E0A4EAB1E0B6
:1000900001C01D92AB3AB207E1F702D006C4B0CF5F
:1000A000CF93DF9366D3E5EAF1E08EE091E09383AE
:1000B000828380E091E0918380838CE191E09F9343
:1000C0008F9367D0D4E0DF93C2EDCF9383E291E0CA
:1000D0009F938F935ED0DF93CF9384E391E09F93C0
:1000E0008F9357D0DF93CF9383E491E09F938F93C7
:1000F00050D0DF93CF9384E591E09F938F9349D0C5
:1001000083E691E09F938F9388E691E09F938F938E
:1001100040D01F9283E48F938BE791E09F938F935E
:1001200038D08DB79EB74A960FB6F8949EBF0FBED3
:100130008DBF80E090E0DF91CF9108951F920F92E4
:100140000FB60F9211248F938091A4018F5F80933B
:10015000A40186B38FEF86BB8F910F900FBE0F90D7
:100160001F901895F8C2CF93DF9300D0CDB7DEB7BC
:100170009B011A821982AC01BE016F5F7F4F82EB37
:1001800090E0EDD089819A810F900F90DF91CF910F
:100190000895CF93DF93CDB7DEB7BE016B5F7F4F7E
:1001A000FB0181919191BF01DEDFDF91CF91089535
:1001B0002F923F924F925F926F927F928F929F9277
:1001C000AF92BF92CF92DF92EF92FF920F931F9365
:1001D000CF93DF93CDB7DEB762970FB6F894DEBF4B
:1001E0000FBECDBF9A8789877C876B872701302E0A
:1001F000212E2D873E874F87588BDA8AC98A350191
:10020000960140E050E060E070E0CB01C9823A83A3
:100210004B835C836D837E838F8398879701402F08
:10022000512F6D857E858F859889A980BA80C12CD4
:10023000D12CE12CF12C00E010E017D390F051E02C
:10024000651A7108522DA5D25301C988DA8879013F
:100250008A019B01AC016B857C8589859A85A8DF25
:100260000DC0F1E06F1A7108161417043CF46B8589
:100270007C85C401E985FA850995F3CFA980BA8008
:10028000C12CD12CE12CF12C00E010E09201432D87
:10029000522D6D857E858F85988979D2F901E55734
:1002A000FE4F80816B857C85082E000C990BE985BB
:1002B000FA8562960FB6F894DEBF0FBECDBFDF9110
:1002C000CF911F910F91FF90EF90DF90CF90BF9053
:1002D000AF909F908F907F906F905F904F903F90E6
:1002E0002F9009948F929F92AF92BF92CF92DF92FC
:1002F000EF92FF92DC01ED91FC911197CF016230FA
:10030000710564F008968D939C9380809180A28003
:10031000B380C480D580E680F78014C0672B41F09D
:1003200004968D939C9380809180A280B38007C0B7
:1003300002968D939C9380809180A12CB12CC12C2E
:10034000D12C76019401A501B601C701FF90EF9071
:10035000DF90CF90BF90AF909F908F9008952F9295
:100360003F924F925F926F927F928F929F92AF9245
:10037000BF92CF92DF92EF92FF920F931F93CF9392
:10038000DF93CDB7DEB72C970FB6F894DEBF0FBE64
:10039000CDBF1C013B018A013A8329830F5F1F4FA8
:1003A000F8013197808190E08532910539F000970E
:1003B00009F4B8C1B301F1010995F0CFE981FA81DF
:1003C000B0E28B2EC12CD12C2FEF3FEF44244A9466
:1003D000542C60E070E0A8014F5F5F4F5C874B8753
:1003E000D8014C91842F90E04A33F8F4413308F05F
:1003F00072C04A3209F48BC050F4433209F490C001
:10040000453209F081C1FA83E983B3017AC14E32E2
:1004100009F481C0403309F45BC04D3209F074C166
:10042000ADE28A2E0B851C85D6CF4F3609F443C129
:1004300088F4443609F4DFC04C3609F47BC04336F7
:1004400009F062C1CF0102969A838983B30180814A
:10045000918157C1433709F470C030F5403709F036
:1004600053C1FA83E983B30180E390E0F101099578
:10047000B30188E790E0F1010995E981FA81CF01A4
:1004800002969A838983808191818C0120E030E0FB
:1004900040E050E0BA018B831C832D833E834F8361
:1004A000588769877A8717C1453709F4F6C04837F6
:1004B00009F02AC1FA83E983CE01019613DF2B8369
:1004C0003C834D835E836F83788789879A8703C1D6
:1004D00050E3852EA7CFAB85BC8520E030E0BC87FC
:1004E000AB870AE0029FA001039F500D1124840FE7
:1004F000951F9C01205331098D91082E000C990BFA
:10050000AC01405351094A30510548F30DC02081D8
:100510003181329609C057FE85CF412C512C82CFB4
:10052000CC24C394D12C7ECF57FE7CCF29012FEF52
:100530003FEF78CF6F5F7F4F75CF7901CF01029684
:100540009A838983008111810115110511F40CE949
:1005500011E01414150454F5FDE28F1639F1B901B8
:10056000C80198D1481A590A5201082C000C990860
:100570001A141B0444F4B301C401F1010995F1E01C
:10058000AF1AB108F5CFC20157FE02C080E090E07B
:10059000481A590A0BC0F7FE1BC0B301C114D1049D
:1005A00071F4F1010995F1E04F1A5108D8018D91CC
:1005B0008D01082E000C990B009769F716C09C015D
:1005C000205231092F35310560F38FE390E0E9CFF8
:1005D000B1E0EB1AF10808F708C0B30180E290E03F
:1005E000F1010995F1E04F1A510814141504ACF308
:1005F0000B851C85D3CECF016230710564F008965F
:100600009A838983E080F1800281A380B480C580D1
:10061000D680178122C0672B99F004969A8389832C
:1006200080819181A281B3817C010A2FAB2EBB0F07
:10063000880B982FDC01B82EC82ED82E182F0DC08D
:1006400002969A838983F180E0800F2D000F000BC2
:10065000A02EB02EC02ED02E102FEB82FC820D8348
:10066000AE82BF82C886D9861A879701402F5A2D3D
:100670006B2D7C2D8D2D912FA0E000D17CF5B30149
:100680008DE290E0F10109959701402F5A2D6B2DD5
:100690007C2D8D2D912FD9D005C0FA83E983CE0111
:1006A000019620DE2B833C834D835E836F837887A6
:1006B00089879A8713C0FA83E983CE01019612DEF7
:1006C0002B833C834D835E836F83788789879A87EA
:1006D00088E090E005C080E190E002C08AE090E010
:1006E000082C000C990852016C01EB80FC800D81F4
:1006F0001E812F81388549855A85B301C10158DD96
:1007000077CFF101099574CFFA83E983B30185E2CC
:1007100090E0F1010995F801FC87EB878291853221
:10072000D9F766CF2C960FB6F894DEBF0FBECDBFBB
:10073000DF91CF911F910F91FF90EF90DF90CF90BD
:10074000BF90AF909F908F907F906F905F904F90F1
:100750003F902F9008959091C00095FFFCCF80931B
:10076000C60008958091C00087FFFCCF8091C6002D
:1007700008951092C50087E68093C400E0ECF0E095
:1007800080818D7F808388E18093C1000895689483
:1007900001C0E8948F929F92CF93DF9305D0DF91B1
:1007A000CF919F908F90089588249924F401E401BB
:1007B000B0E49F93AA279A158B049C04ED05FE05CF
:1007C000CF05D007A10798F4AD2FDC2FCF2FFE2F38
:1007D000E92D982C892E982F872F762F652F542F4F
:1007E000432F322F2227B85031F7BF9127C01B2E3D
:1007F000BF91BB27220F331F441F551F661F771F52
:10080000881F991F881C991CEE1FFF1FCC1FDD1F1E
:10081000AA1FBB1F8A149B04EC05FD05CE05DF054E
:10082000A007B10748F08A189B08EC09FD09CE091A
:10083000DF09A00BB10B21601A94E1F62EF49401AC
:10084000AF01BE01CD01000C0895609570958095B3
:10085000909530954095509521953F4F4F4F5F4F64
:100860006F4F7F4F8F4F9F4F08952A153B054C05C3
:100870005D056E057F058007910708950024A7FD9B
:1008800000942A1730054005500560057005800565
:1008900090050895FC016150704001900110D8F757
:0E08A000809590958E0F9F1F0895F894FFCFBE
:1008AE0000000001000000000000B2030000000084
:1008BE00000200000000AB030000000054657374DA
:1008CE000D0A005072696E742062726F6A61202583
:1008DE00640D0A005072696E742068657820257860
:1008EE000D0A005072696E74206F6374616C20255E
:1008FE00780D0A005072696E742070747220257023
:10090E000D0A0054657374005072696E742073740E
:10091E0072696E67612025730D0A007072696E74BC
:10092E0020636861722025630D0A00303132333442
:10093E00353637383961626364656600286E756CCA
:04094E006C29000010
:00000001FF
